:020000040800F2
:10000000B80F002069020008FB130008E50500088E
:10001000F9130008690400085526000800000000D4
:10002000000000000000000000000000CD1C0008DF
:100030006B04000800000000B9180008C91E000881
:10004000830200088302000883020008830200087C
:10005000830200088302000883020008830200086C
:10006000830200088302000883020008830200085C
:10007000830200088302000883020008830200084C
:10008000830200088302000883020008830200083C
:10009000830200088302000883020008830200082C
:1000A000830200088302000883020008830200081C
:1000B0008302000883020008291F00088302000849
:1000C00083020008830200088302000883020008FC
:1000D00083020008BD2300082524000883020008CD
:1000E00083020008830200088302000883020008DC
:1000F00083020008830200088302000883020008CC
:1001000083020008830200088302000883020008BB
:10011000830200087123000883020008830200089C
:10012000830200088302000883020008830200089B
:10013000830200088302000883020008830200088B
:10014000830200088302000883020008830200087B
:10015000830200088302000883020008830200086B
:10016000830200088302000883020008830200085B
:10017000830200088302000883020008830200084B
:10018000830200088302000800F002F800F05CF827
:100190000AA090E8000C82448344AAF10107DA45E2
:1001A00001D100F051F8AFF2090EBAE80F0013F0D8
:1001B000010F18BFFB1A43F001031847444B00001E
:1001C000644B00000A444FF0000C10F8013B13F0A0
:1001D000070408BF10F8014B1D1108BF10F8015BA0
:1001E000641E05D010F8016B641E01F8016BF9D193
:1001F00013F0080F1EBF10F8014BAD1C0C1B09D1EA
:100200006D1E58BF01F801CBFAD505E014F8016B5B
:1002100001F8016B6D1EF9D59142D6D370470000ED
:100220000023002400250026103A28BF78C1FBD8FF
:10023000520728BF30C148BF0B6070471FB504F09C
:10024000D2F91FBD10B510BD00F046F81146FFF7FA
:10025000F5FF03F0A3FA00F064F803B4FFF7F2FF30
:1002600003BC03F00BFA0000094880470948004727
:10027000FEE7FEE7FEE7FEE7FEE7FEE7FEE7FEE756
:10028000FEE7FEE704480549054A064B70470000B3
:10029000CD1E000889010008B8090020B80F002011
:1002A000B80B0020B80B00207047704770477047AC
:1002B000704710B500F00CF8006810BD10B504468A
:1002C00000F006F8046010BD004870475409002093
:1002D00000487047540900207546FFF7F5FFAE4609
:1002E00005006946534620F00700854618B020B542
:1002F000FFF7C8FFBDE820404FF000064FF00007B1
:100300004FF000084FF0000B21F00701AC46ACE8BD
:10031000C009ACE8C009ACE8C009ACE8C0098D462A
:10032000704710B50446AFF300802046BDE810408A
:10033000FFF793BF002904D0816841F0010181607B
:100340007047816821F001018160704710B5074C4A
:10035000226807490A40D0E900131943D0E9023066
:10036000034319431143216010BD000004230140E1
:10037000E030FCFF30B542680F4B1A400C790B6837
:1003800042EA04221343436083680C4A1340D1E9D4
:10039000034222434D798C6844EA450422431A43C0
:1003A0008260C26A22F47002097D491EC9B242EA23
:1003B0000151C16230BD0000FFFEFFFCFDF7FFC030
:1003C00070B58CB00121022001F036FB01210E0234
:1003D000304601F04DFB01250A9503218DF82C10C4
:1003E00000248DF82F400AA9144800F03FF801219D
:1003F000304601F04BFB0021304601F047FB0694EC
:100400004FF47060099008946804079006A8FFF7FD
:100410009DFF00948DF804408DF8055002940494DB
:100420008DF81450064C69462046FFF7A3FF0121C2
:100430002046FFF77FFF0CB070BD000000040240B3
:100440000020014010B5074C0421204600F05CF864
:100450004FF4FA7003F032F92046BDE81040042151
:1004600000F054B800040240FEE770472DE9F04167
:10047000002201274FF0030C07FA02F50B682B400E
:10048000AB422CD1066853000CFA03F4A643066075
:100490000E79D0F800809E4046EA080606600E7984
:1004A000012E01D0022E12D18668A64386604E79B5
:1004B000D0F808809E4046EA080686604668AE434B
:1004C000466045688E799640B6B235434560C5684A
:1004D000A543C560CC799C40C3681C43C460521CD2
:1004E000102AC9D3BDE8F08110B54B07DB0E9A4046
:1004F000C90800EB8100016A0F249C40A1430162FE
:10050000016A1143016210BD418370470183704746
:100510002DE9FC470121072001F08EFA4FF44078C5
:10052000CDF8008001248DF8044000258DF8065098
:1005300003268DF805608DF80740DFF89C9069462A
:100540004846FFF793FF0E2000908DF804408DF889
:1005500006508DF805608DF80740DFF880A06946E9
:100560005046FFF783FF042000908DF804408DF87B
:1005700006508DF8056002208DF807006946484650
:10058000FFF774FF04214846FFF7C0FF10270097CC
:100590008DF804508DF805608DF8074069461048C5
:1005A000FFF764FF00978DF804508DF805608DF813
:1005B000074069465046FFF759FF41464846FFF756
:1005C000A5FF0C215046FFF7A1FF02215046FFF77F
:1005D0009DFFBDE8FC8700000004024000080240C7
:1005E00000000240FEE7000010B52DED028B00F088
:1005F00051FB00F01BFB9FED0B8A0948F3EE040A48
:10060000B0EE480A01F0FEFBB0EE480ABDEC028BEA
:100610000348BDE810401830DFED030A01F0F2BBDB
:10062000680700200000FA430000244270B52DED59
:10063000088BBE4800F09EF9BC4E96ED050ADFED32
:10064000BC9A20EE290A9FEDBBAAD6ED022A96EDB0
:10065000012A80EE0A1A96ED040A20EE290AC0EE5D
:100660000A0A96ED030A60EE291A81EE8A0AD6ED8F
:10067000001A9FEDB13AB0EE434AF0EE433A00F073
:10068000B3FBAE48D0ED001AA6F11000C0ED001A81
:10069000AB49D1ED000AC0ED010AAA4991ED000A6B
:1006A00080ED020AA84991ED001A80ED031A21EEAF
:1006B000A13AA64D85ED003A61EEA08AC5ED018A0A
:1006C00021EE802A85ED022A61EE814AC5ED034ABA
:1006D00060EEA01AC5ED041A20EE805A85ED055A89
:1006E00060EE815AC5ED065A60EE000AC5ED070AB4
:1006F00020EE019A85ED089A21EE010A85ED090A9E
:1007000033EE211AF43031EE601A71EE403AC0ED4A
:10071000003A35EE241AB0EE008A61EE082AC0EDE8
:10072000012A35EEC21A21EE084A80ED024A35EE62
:10073000641A61EE084AC0ED034A33EE611A31EEE5
:10074000203A33EE405A80ED045A39EE283A23EE2F
:10075000083A80ED053A35EE822A62EE085AC0ED7D
:10076000065A39EE682A62EE086AC0ED076A31EE71
:10077000601A31EE006A80ED086A96ED002A96ED67
:10078000017AD6ED027A23EE820A714C04EE870AD2
:1007900005EEA70A84ED090A22EE821A05EE071A71
:1007A00006EEA71A84ED0A1A24EE022A03EE072A9F
:1007B00006EE272A9FED677A32EE472A84ED0B2A50
:1007C00063EE803A42EE813A44EE023AC4ED193AC1
:1007D00064EE802A45EE012A43EE022AC4ED1A2A6D
:1007E00025EE800A06EE810A06EE020A84ED1B0A57
:1007F00096ED030ADFED582A80EE221A84ED071ADF
:1008000096ED041A81EE222A84ED062A96ED052A39
:1008100082EE223A84ED083A84ED1C0A84ED1D1A1A
:1008200084ED1E2A96ED060A84ED1F0A96ED070A4E
:1008300084ED200A96ED080A84ED210A71EEA00AE3
:10084000F7EE00AAB0EE6A0A00EEC80A10EE100A2F
:1008500003F058FE38EE890A41EC1B0B20EE080A23
:1008600010EE100A03F04EFE41EC100BB0EE4B1AE6
:10087000F0EE6B1A02F0F8FA9FED38BB51EC100B5A
:1008800053EC1B2B03F07EFB9FED361B53EC112B1F
:1008900003F020FA03F044F9606095ED020AD5ED0B
:1008A000060A30EE600A20EE080A03F06DF820EE2A
:1008B0000A0AC0EE290AC4ED000A95ED070AF8EE0F
:1008C000000A20EE200AD5ED090A00EEC80A30EE33
:1008D0002A0A10EE100A03F015FE95ED050AD5ED73
:1008E000030A41EC190B20EE080A00EE880A10EE0C
:1008F000100A03F007FE41EC100BB0EE491AF0EEBF
:10090000691A02F0B1FA53EC1B2B51EC100B03F0F7
:1009100039FB9FED161B53EC112B03F0DBF903F0B1
:10092000FFF8A060BDEC088B70BD000044070020FC
:10093000DB0F4940000034430000000004020020A7
:10094000080200200C0200201002002050000020AD
:10095000B0040020AEB61C413333654200000000F5
:100960000080664000000060FB2109C000000060BC
:10097000FB21094030B585B004466946881D00F06A
:10098000CBF9BDF9060000EE100AB8EEC01ADFED93
:10099000530A534D81EE200A85ED000ABDF9080087
:1009A00001EE100AB8EEC11AC1EE201AC5ED011A07
:1009B000BDF90A0001EE100AB8EEC11AC1EE201A04
:1009C000C5ED021A05F1580101F1600000F002F9CD
:1009D00084ED030A05F1580195ED010A01F1780053
:1009E00000F0F8F884ED040A05F1580195ED020ACB
:1009F00001F1900000F0EEF884ED050ABDF9000069
:100A0000DFED380A00EE100A9FED371A0C3DB8EE04
:100A1000C00A20EE200A20EE010A85ED000ABDF989
:100A2000020001EE900AF8EEE11A61EEA01A61EE02
:100A3000811AC5ED011ABDF9040001EE900AF8EE25
:100A4000E11A61EEA00A60EE810AC5ED020A05F125
:100A50004C0101F1300000F0BDF884ED000A05F111
:100A60004C0195ED010A01F1480000F0B3F884ED66
:100A7000010A05F14C0195ED020A01F1600000F058
:100A8000A9F884ED020ABDF90C0000EE100AF8EE98
:100A9000C00A9FED160A20EE801AF1EE000A21EE40
:100AA000201A84ED061ABDF90E0001EE100AB8EE08
:100AB000C11A21EE001A21EE201A84ED071ABDF9A1
:100AC000100001EE100AB8EEC11A21EE000A20EE65
:100AD000200A84ED080A05B030BD00006F12834182
:100AE0002807002000008039AEB61C410000003805
:100AF00010B59FED2F1A80ED011A80ED021ADFED7F
:100B00002D1AC0ED031A9FED2C2A80ED042A012432
:100B100080F83440B7EE000A80ED1D0A80ED210A0E
:100B200080ED250ADFED250AC0ED000A81ED011AEE
:100B300081ED021AC1ED031A81ED042A81F83440D7
:100B400081ED1D0A81ED210A81ED250AC1ED000A22
:100B50009FED1B1A82ED011A9FED1A1A82ED021AFF
:100B600082ED031A82ED041A82F8344082ED1D0AE8
:100B700082ED210A82ED250AC2ED000ADFED121A8C
:100B8000C3ED011ADFED111AC3ED021A83ED031A4A
:100B90009FED0F1A83ED041A83F8344083ED1D0A8C
:100BA00083ED210A83ED250AC3ED000A10BD000084
:100BB000CDCC4C3DEC51383D0AD7233D0AD7A33B61
:100BC0000AD7A33D0AD7233C0AD7A33C6F12833A26
:100BD000CDCCCC3E80ED020AD1ED030AD1ED041A52
:100BE00090ED011A60EE800A90ED002AD0ED032A04
:100BF00041EE810AD1ED051A41EE820A91ED012AFA
:100C0000D0ED041A42EE610A91ED022A42EE620A28
:100C1000C0ED050A80ED001A80ED010AC0ED031A4F
:100C2000C0ED040AB0EE600A704700002DE9FF47EE
:100C3000002500260027DFF858900020A9F80000C2
:100C4000A9F80200A9F8040000244FF4FA78C8209B
:100C500002F04EFD694602A800F05EF8BDF90800FA
:100C60000544BDF90A000644BDF90C000744641CA4
:100C70004445ECD395FBF8F0A9F8000096FBF8F09A
:100C8000A9F8020097FBF8F0A9F80400BDE8FF8777
:100C90003C00002010B580216B2000F08BF8142060
:100CA00002F00CFD0721682000F084F8142002F007
:100CB00005FD03216B2000F07DF8142002F0FEFCFE
:100CC0000021192000F076F8142002F0F7FC102122
:100CD0001C2000F06FF8142002F0F0FC04211D200D
:100CE00000F068F8142002F0E9FC18211B2000F045
:100CF00061F8142002F0E2FC03211A2000F05AF8F7
:100D0000142002F0DBFC00216C2000F053F8BDE859
:100D10001040142002F0D2BC2DE9F04104460D46EB
:100D2000214F4FF4807631463846FFF7EDFB1F4ADE
:100D30000E213B2000F090FF31463846FFF7E6FBDE
:100D40001A4A1B4B5078117840EA012CA3F80CC0CA
:100D5000D078917840EA0120D8815179167941EA1A
:100D600006211982567A177A46EA0726DE80D77A54
:100D700092F80A8047EA08271F8192F80D80127BBB
:100D800048EA02225A81B3F80080A6EB08062680C2
:100D90005E88BE1B66809B88D21AA280A5F800C020
:100DA0006880A980BDE8F081000802400C0700209F
:100DB0003C0000202DE9F04107460E46094D4FF456
:100DC000807421462846FFF79FFB384600F034FF29
:100DD000304600F031FF21462846BDE8F041FFF7DC
:100DE00095BB00000008024010B52DED108B84B0BB
:100DF000B0EE408AF0EE608AB0EE419AB5EEC03AAD
:100E0000F1EE10FA16D1F5EEC03AF1EE10FA11D16A
:100E1000B5EEC04AF1EE10FA0CD104B0B0EE491AAA
:100E2000F0EE680AB0EE480ABDEC108BBDE8104049
:100E300000F0C0B9F5EEC01ADA4CF1EE10FA09D1A3
:100E4000B5EEC02AF1EE10FA04D1F5EEC02AF1EEAB
:100E500010FA7CD021EEA10A02EE020A02EEA20AEA
:100E600002F086FC21EE80EA62EE00EA22EE80FAD1
:100E700023EE030A03EEA30A04EE040A02F078FC50
:100E800063EE009A23EE80AA64EE00AA94ED020AB3
:100E9000D4ED020A20EE202A8DED002A94ED020AFC
:100EA000D4ED030A20EE20BA94ED020AD4ED040A30
:100EB00060EE20BA94ED020AD4ED050A20EE200A75
:100EC000D4ED030A94ED031A60EE811AD4ED030AFF
:100ED00094ED041A60EE810A94ED031A94ED052A4C
:100EE00021EE02CA94ED041A94ED042A61EE02DAAE
:100EF00094ED042A94ED051A62EE01CA94ED051AE8
:100F000094ED052A21EE02DAF6EE00FA3FEEED1A34
:100F100031EE4D2A8DED032A22EE291A30EEC02A39
:100F20008DED022A0AEE021A3CEE2B2A0AEE821AF4
:100F3000B0EE002A21EE021A30EE800A7FEEE10ABE
:100F4000CDED010A20EE290A70EECD0A00E0ADE0F9
:100F50000AEE200A7CEECB0A0AEEA00AF0EE000AA6
:100F600020EE200A61EE010A40EE000A10EE900A1F
:100F700003F0C8FA41EC100B02F016F951EC100B1B
:100F800002F0CEFD00EE100A3CEE6B1A7CEE8B0AEE
:100F900061EE291A4AEE201ADDED010A70EEED3AF3
:100FA000F0EE000A4AEEA31A61EEA00A7BEE2C1ABC
:100FB0009DED002A32EE6F2A32EE0D3A9DED032AA6
:100FC00062EE002A40EE812A9DED022A22EE002ADE
:100FD00000EEA12A3BEE8C4A24EE000A00EEA30AA2
:100FE0006EEE830A4FEE610A6AEE003A4AEEC23AAA
:100FF00070EEA30A6FEE013A4EEE433A2AEEA23AA1
:1010000009EEC03A33EE830A6EEE211A4EEEC11A93
:1010100029EE821A0AEE621A31EE811AD4ED011A13
:10102000F5EEC01AF1EE10FA2CDDD4ED011A94EDB4
:10103000062A61EEA02ADFED5C1A02EEA12A84EDF9
:10104000062A94ED012A62EE002A94ED072A02EEA8
:10105000A12A84ED072A94ED012A62EE012A94ED7B
:10106000082A02EEA12A84ED082AD4ED061A38EEE9
:10107000218AD4ED071A78EEA18AD4ED081A39EE48
:10108000219A07E0DFED491AC4ED061AC4ED071AEC
:10109000C4ED081AD4ED001A01EEA08AD4ED000ABE
:1010A00040EE808A94ED000A00EE019A9FED401A0E
:1010B00028EE010A68EE810A29EE011AD4ED021A1F
:1010C00094ED032AD4ED042AD4ED053AB1EE423A68
:1010D00023EE003A02EEE03A03EEC13AD4ED023AD2
:1010E00033EE233A84ED023A21EE803AD4ED053A0C
:1010F00002EE813A03EEE03AD4ED033A33EE233ABE
:1011000084ED033A21EEA03AD4ED053A02EE413ADD
:1011100003EE803AD4ED043A33EE233A84ED043AF8
:1011200021EE811A02EE201A02EEC01A94ED050A91
:1011300031EE000A84ED050A94ED020AD4ED020AAC
:1011400094ED031A20EE200AD4ED030A00EE810A82
:10115000D4ED040A94ED041A00EE810AD4ED050AD8
:1011600094ED051A00EE810A02F002FBD4ED020AAA
:1011700060EE800AC4ED020AD4ED030A60EE800A34
:10118000C4ED030AD4ED040A60EE800AC4ED040A3B
:10119000D4ED050A20EE800A84ED050A04B0BDEC0A
:1011A000108B10BDFC0100206F12033B00000000FB
:1011B0006F12833A00B5B0EE403AB0EE604AF0EEFE
:1011C000413AF5EEC01A884AF1EE10FA09D1B5EEAF
:1011D000C02AF1EE10FA04D1F5EEC02AF1EE10FAB1
:1011E00073D021EEA10A02EE020A02EEA20A02F078
:1011F000BFFA61EE804A22EE005A62EE801A92ED4A
:10120000030AD2ED050A20EE201A92ED020AD2ED71
:10121000040A00EE601A92ED020AD2ED030A20EEF3
:10122000202A92ED040AD2ED050A00EE202AD2ED22
:10123000020AD2ED022AB6EE000A10EEA20AD2EDA0
:10124000050AD2ED052A00EEA20A65EE000A41EE7B
:10125000C20A61EE811A44EEC01A24EE820A05EE3B
:10126000410A92ED011AB5EEC01AF1EE10FA2DDD29
:1012700092ED011A92ED062A61EE202A9FED5B1A8B
:1012800002EE812A82ED062A92ED012A62EE212ADF
:1012900092ED072A02EE812A82ED072A92ED012AB9
:1012A00062EE002A92ED082A02EE812A82ED082AD7
:1012B00092ED061A33EE013A92ED071A34EE014A26
:1012C00092ED081A73EE813A08E013E09FED481A98
:1012D00082ED061A82ED071A82ED081A92ED001AC5
:1012E00001EE203AD2ED000A00EEA14AD2ED000A4A
:1012F00040EE803A9FED3F1A23EE010A64EE010AA8
:1013000023EE811AD2ED021A92ED032AD2ED042ABD
:10131000D2ED053AB1EE423A23EE003A02EEE03A5F
:1013200003EEC13AD2ED023A33EE233A82ED023AAD
:1013300021EE803AD2ED053A02EE813A03EEE03A30
:10134000D2ED033A33EE233A82ED033A21EEA03A8E
:10135000D2ED053A02EE413A03EE803AD2ED043A7C
:1013600033EE233A82ED043A21EE811A02EE201A7E
:1013700002EEC01A92ED050A31EE000A82ED050A6E
:1013800092ED020AD2ED020A92ED031A20EE200A33
:10139000D2ED030A00EE810AD2ED040A92ED041A9E
:1013A00000EE810AD2ED050A92ED051A00EE810ADF
:1013B00002F0DEF9D2ED020A60EE800AC2ED020A06
:1013C000D2ED030A60EE800AC2ED030AD2ED040AF0
:1013D00060EE800AC2ED040AD2ED050A20EE800A12
:1013E00082ED050A00BD0000FC0100206F12033BE6
:1013F000000000006F12833AFEE7704730B50F23FC
:10140000C27801250178002A1FD0154A126802F41B
:10141000E062C2F5E062C2F30722C2F10404D340E5
:101420004278A24084781C401443220101F1E0215B
:1014300081F80024007800F01F018D4040098000F1
:1014400000F1E020C0F8005130BD01F01F008540E0
:101450004809800000F1E020C0F8805130BD000054
:101460000CED00E0024908430249086070470000A3
:101470000000FA050CED00E070B5002505F1B000A4
:10148000C0B2002100F05AF90021022000F056F904
:101490000021102000F052F900240121002000F06A
:1014A0004DF9641CE4B2802CF7D36D1CEDB2082D0D
:1014B000E4D370BD1CB50121112000F0BDFA8020DD
:1014C000009001208DF8040000208DF80600032014
:1014D0008DF8050002208DF807004E4C6946204625
:1014E000FEF7C4FF80212046FFF710F8F02000909F
:1014F000494C69462046FEF7B9FFF0212046FFF728
:1015000005F880212046FFF701F8642002F0D6F8A4
:1015100080212046FEF7F8FF642002F0CFF88021FA
:101520002046FEF7F3FF0021AE2000F007F900216E
:10153000022000F003F90021102000F0FFF8002144
:10154000402000F0FBF80021812000F0F7F8002196
:10155000CF2000F0F3F80021A12000F0EFF80021E7
:10156000C82000F0EBF80021A62000F0E7F80021E9
:10157000A82000F0E3F800213F2000F0DFF8002170
:10158000D32000F0DBF80021084600F0D7F8002156
:10159000D52000F0D3F80021802000F0CFF8002102
:1015A000D92000F0CBF80021F12000F0C7F800218D
:1015B000DA2000F0C3F80021122000F0BFF800216B
:1015C000DB2000F0BBF80021402000F0B7F800213C
:1015D000202000F0B3F80021022000F0AFF8002135
:1015E0008D2000F0ABF80021142000F0A7F80021B6
:1015F000A42000F0A3F80021A62000F09FF800210D
:10160000AF2000F09BF8FFF737FF0021084600F0FD
:1016100005F81CBD001002400000024010B5044651
:10162000B031C8B2002100F089F8102040EA14104F
:10163000002100F083F804F00F00BDE8104040F0F6
:101640000100002100F07AB82DE9F0478146884674
:10165000174641464846FFF7E1FF0024104E06EBCF
:1016600087150121285D00F069F8641CE4B2102C94
:10167000F7D308F1010808F0FF014846FFF7CEFF55
:101680000024012000EB470006EB40150121285DF6
:1016900000F054F8641CE4B2102CF7D3BDE8F087D6
:1016A0007B0000202DE9F04180460F460024203ABF
:1016B000D5B2B8F17F0F02D9A046BF1CFFB23946A0
:1016C0004046FFF7ABFF0F4E04EB05100121305CE5
:1016D00000F034F8641CE4B2082CF5D37F1CF9B296
:1016E0004046FFF79BFF002404EB05103044012126
:1016F000007A00F023F8641CE4B2082CF4D3BDE8AF
:10170000F0810000FA4500082DE9F04104460E463C
:10171000174600250CE031462046FFF7C3FF08348A
:10172000E4B2782C02D90024B61CF6B26D1CEDB2DE
:101730007A5D002AEFD1BDE8F08100002DE9F0418B
:1017400005461C4F002904D040213846FEF7DEFE36
:1017500003E040213846FEF7D7FE20213846FEF749
:10176000D3FE0024144E80213046FEF7CDFE28061D
:1017700004D510213846FEF7C9FE03E01021384693
:10178000FEF7C2FE80213046FEF7C0FE6806050E59
:10179000052001F0ADFF641CE4B2082CE3D3202146
:1017A0003846FEF7B3FE3846BDE8F0414021FEF76B
:1017B000ADBE0000000002400010024070B58AB0CB
:1017C0000121084600F046F90121084600F034F9ED
:1017D000384D012200212846FEF786FE01221146DF
:1017E0002846FEF781FE012202212846FEF77CFEF4
:1017F000012203212846FEF777FE0F2100910221E6
:101800008DF805108DF8041000248DF806408DF831
:10181000074069462846FEF729FE4FF4FA60089013
:101820005320ADF81C00ADF82440ADF81E406E0307
:1018300007A9304600F05EFD6020ADF80800ADF865
:1018400014402C1504940125ADF80A5002A9304625
:1018500000F044FC0821304600F074FC0494ADF81C
:101860000A5002A9304600F073FC0821304600F00F
:10187000B3FC0494ADF80A5002A9304600F0B6FC5F
:101880000821304600F0F4FC0494ADF80A5002A997
:10189000304600F0F3FC0821304600F021FD012124
:1018A000304600F0E9FB0121304600F0F4FB0AB0BD
:1018B00070BD000000000240704700009FED4F0A1D
:1018C0004F4880ED000A9FED4F0A80ED010A80ED40
:1018D000020ADFED4D0AC0ED030A80ED040A80ED37
:1018E000050AC0ED060A80ED070A80ED080ADFED63
:1018F000470AC0ED090A9FED461A80ED0A1AF0EE7C
:10190000041AC0ED0B1AC0ED0C0A80ED0D1AC0EDE3
:101910000E1ADFED400AC0ED0F0A80ED100ADFED70
:101920003E0AC0ED110ADFED3D0AC0ED180A80ED58
:10193000190A80ED1A0AF1EE0A0AC0ED210ADFED5C
:10194000380AC0ED220A80ED230AFEEE000AC0ED3F
:10195000120A80ED130A80ED140AF3EE011AC0EDAD
:101960001B1A80ED1C0A9FED2F1A80ED1D1AC0ED89
:10197000150A80ED160A80ED170AC0ED1E1A80EDDB
:101980001F0A80ED201ADFED280AC0ED240ADFEDE2
:10199000270AC0ED250A80ED260A80ED270A80ED92
:1019A000280A80ED290A80ED2D0A80ED2E0A80EDAF
:1019B0002F0A80ED2A0A80ED2B0A80ED2C0A80ED9B
:1019C000300A80ED310A80ED320A194880ED000AB4
:1019D00080ED010A1748002141808180C18080ED9F
:1019E000050A80ED060A80ED070AB7EE000A80EDD1
:1019F000080A80ED090A80ED0A0A70470AD723BC5D
:101A00004C050020000000000AD7233C0000F042F3
:101A10006666164000007042CDCCCC3DCDCC4C3F2C
:101A2000CDCC4C3D9A99193FCDCC0C3F0AD7233DE4
:101A30000400002018060020054A002903D0116880
:101A400001431160704711688143116070470000C5
:101A500030380240054A002903D011680143116063
:101A600070471168814311607047000040380240A0
:101A7000054A002903D011680143116070471168BD
:101A8000814311607047000044380240054A002934
:101A900003D01168014311607047116881431160E0
:101AA000704700002438024070B5244B196801F0DB
:101AB0000C01234C00291ED0661004291DD00829D2
:101AC0001DD00460196801F0F00109091D4A545C39
:101AD0000168E14041601C6804F4E054A40A145D0C
:101AE00021FA04F484601B6803F460435B0BD25C4E
:101AF000D140C16070BD0460E4E70660E2E70F4AD0
:101B0000121F1168C1F38055116801F03F0135B112
:101B1000B6FBF1F11468C4F38814614305E0B4FB2B
:101B2000F1F11468C4F3881461431268C2F30142EE
:101B3000521C5200B1FBF2F10160C3E708380240C9
:101B40000024F400150000202DE9F04188B00121A7
:101B50000620FFF771FF0121CE033046FFF77AFF21
:101B60003820069002218DF81D108DF81C100024DD
:101B70008DF81E408DF81F402C4F06A93846FEF701
:101B800075FC062203213846FEF7AEFC062204212E
:101B90003846FEF7A9FC062205213846FEF7A4FCCC
:101BA000DFF88C80F51129464046FEF7AFFC06951C
:101BB00001258DF81C508DF81F5006A94046FEF7F0
:101BC00055FC31463846FEF7A1FC06968DF81C50B0
:101BD0008DF81F5006A93846FEF748FC154D002128
:101BE000284600F04BF8ADF804404FF48271ADF890
:101BF0000610ADF80840ADF80A40ADF80C40681585
:101C0000ADF80E003020ADF81000ADF812400720FE
:101C1000ADF8140001A9284600F03CF8012128463F
:101C200000F02CF808B0BDE8F0810000000402408C
:101C300000080240003C004006490A889207FCD593
:101C4000044A121D10800888C007FCD01088C0B25A
:101C500070470000083C004030B50D461446002394
:101C600040F08000FFF7E8FF05E0FF20FFF7E4FF0A
:101C7000E0545B1CDBB2AB42F7D330BD002904D08B
:101C8000018841F0400101807047018821F0400146
:101C90000180704730B5028802F441530A884C88AD
:101CA000CD8822438C882C4322430C8922434C89C3
:101CB00022438C892243CC8922431A430280828B9F
:101CC00022F400628283098A018230BD70470000DD
:101CD0001D488178C27841EA0221C1F30A0300F16C
:101CE0001A010B80D308027943EA4213C3F30A03B3
:101CF0004B804379920942EA8303827943EA822343
:101D0000C3F30A038B805308C27943EAC213C3F3B7
:101D10000A03CB801309027A43EA0213C3F30A03CE
:101D20000B81437AD20942EA4303827A43EA42238F
:101D3000C3F30A034B81C07A920842EA8010C0F3D1
:101D40000A00888170470000140900200CB50022A9
:101D5000019200922749086840F4803008604FF4EF
:101D6000A043086800F4003000900198401C0190E6
:101D7000009810B901989842F3D10868800302D501
:101D80000120009000E000920098012831D119480C
:101D90004030026842F0805202601748026842F404
:101DA000404202601348083002680260026842F450
:101DB00000420260026842F4A0520260021F0F4B10
:101DC00013600A6842F080720A600A689201FCD5CA
:101DD0000B4A40F205711160016821F003010160B6
:101DE000016841F0020101600168C1F3810102292B
:101DF000FAD10CBD00380240007000400854400782
:101E0000003C024010B504462DED068BB0EE60AAF2
:101E1000C0EE0A0A9FED231A81EE200A01F002FAB1
:101E2000B0EE408ADFED20AAB0EE6A0A01F014F9A4
:101E3000F0EE009AB7EE009A20EE290AF0EE498AF9
:101E400040EE088A48EE088AB5EEC0AAF1EE10FA14
:101E500025D968EE080A80EEA80A84ED030A60EE30
:101E6000290AC4ED040A84ED050A84ED009AB0EE57
:101E7000490A18EE080A20EE290AC0EE280AC4ED25
:101E8000010AB0EE6A0A01F0E7F820EE290A00EE36
:101E9000489A08EE089A89EE280A84ED020ABDECF9
:101EA000068B10BDDB0F4940DB0F493F4FF0E021AF
:101EB000042804D0086920F004000861704708690C
:101EC00040F00400086170477047000010B51248E8
:101ED000016841F4700101601048016841F001019E
:101EE00001600E4A00210832116002680C4B1A4052
:101EF0000260031D0B4A1A60026822F4802202600D
:101F000006480C300160FFF721FF03494FF00060E5
:101F10008039086010BD000088ED00E00038024004
:101F2000FFFFF6FE103000242DE9F047DFF8C480F3
:101F30000121404600F0BBF8002858D02E490888FF
:101F4000401C84B20C804888401C1FFA80F9A1F81C
:101F500002908888401C85B28D80C888401C87B25A
:101F6000CF800889401C1FFA80FCA1F808C048896E
:101F7000401C86B24E81C889401C80B2C8811F4A6D
:101F80001278012A02D18A89521C8A8100220123F7
:101F9000B9F1320F04D3DFF8689089F800304A8035
:101FA000052C02D3174C23700A80052D02D3164C42
:101FB00023708A80022F02D3144C2370CA80BCF194
:101FC000020F02D3124C23700A81B6F57A7F02D336
:101FD000104C23704A81B0F5FA7F02D30E4803708B
:101FE000CA814046BDE8F047012100F051B8BDE884
:101FF000F0870000000800402C00002000000020B6
:10200000020000201000002011000020120000201B
:102010000100002013000020140000201FB5012142
:102020000420FFF717FD40F2E73002905320ADF88F
:1020300004000020ADF80C00ADF806000D4C01A91D
:10204000204600F057F901221146204600F03BF8E7
:102050001E218DF8001001218DF801108DF802105D
:102060008DF803106846FFF7C9F90121204600F0FA
:1020700012F81FBD00080040002904D0018841F07B
:10208000800101807047018821F080010180704744
:10209000C94301827047002904D0018841F0010141
:1020A00001807047018821F00101018070470246DC
:1020B0000020138A0B4092890A40002B02D0002A8C
:1020C00000D001207047002A03D082890A43828110
:1020D000704782898A4382817047000030B5028C44
:1020E00022F001020284058C8388028B22F07002A8
:1020F00022F003020C88144325F002028D89154357
:102100004A882A430D4DA84202D00D4DA8420FD156
:1021100022F00805CA892A4322F004058A882A4346
:1021200023F4807323F400730D8A1D434B8A2B43E1
:102130008380048389684163028430BD00000140CC
:1021400000040140028B22F008020A430283704718
:1021500070B5028C22F010020284028C8388048BFA
:1021600024F4E04424F440760D884FF6FF7404EA2A
:102170000525354322F020028E8904EA061616430F
:102180004A8804EA02123243114EB04202D0114E84
:10219000B04217D122F08002CE8904EA0616164317
:1021A00026F040068A8804EA0212324323F4806350
:1021B00023F400630E8A04EA86061E434B8A04EA6F
:1021C000830333438380058389688163028470BD00
:1021D0000000014000040140028B22F400624FF62F
:1021E000FF7303EA012111430183704770B5028C2C
:1021F00022F480720284028C8388848B24F0700421
:1022000024F003040D88254322F400728E894FF6D2
:10221000FF7404EA062616434A8804EA022232437F
:10222000114EB04202D0114EB04217D122F40066D6
:10223000CA8904EA0222324322F480668A8804EAC8
:102240000222324323F4805323F400530E8A04EA1B
:1022500006161E434B8A04EA0313334383808583A7
:102260008968C163028470BD000001400004014020
:10227000828B22F008020A438283704770B5028C79
:1022800022F480520284058C8288838B23F4E043FD
:1022900023F440760C884FF6FF7303EA042434439A
:1022A00025F400558E8903EA06362E434D8803EA4D
:1022B00005353543084EB04202D0084EB04205D134
:1022C00022F480460A8A03EA82123243828084839F
:1022D00089680164058470BD00000140000401406C
:1022E000828B22F400624FF6FF7303EA012111434F
:1022F0008183704730B50288164C174DA0420DD02F
:10230000A8420BD0B0F1804F08D0144B984205D0B2
:10231000134B984202D0134B984203D122F0700322
:102320004A881A43104B984206D0104B984203D06B
:1023300022F440730A891A4302804A68C2620A88FA
:102340000285A04201D0A84201D1897A01860121EB
:10235000818230BD000001400004014000040040C3
:1023600000080040000C0040001000400014004035
:1023700070B50F4C40F22551204600F0CDF80D4DC0
:102380000D4E28B1A1882878421C2A70315470BDA6
:1023900040F22441204600F0BFF80028F7D0208802
:1023A000A0882878401E30700120287070BD000081
:1023B000005000407A0000201409002070B5164C2F
:1023C00040F22551204600F0A7F800280ED0204604
:1023D00000F03CF9C1B2114A1088030406D4440449
:1023E0004FF0000307D50A2901D0138070BD40F4D7
:1023F0000040108070BD0D290AD0094DC0F30D04B6
:102400002955401C80B21080C728F3D9138070BDB5
:1024100040F48040108070BD001001402A00002070
:10242000440600202DE9F04100242C4E40F22557AF
:102430003946304600F070F800284CD0304600F0A5
:1024400005F9274D592801D1012028702878012845
:102450003BD1304600F0FAF802466878214B411C27
:10246000C9B269701A5409292FD1187859282CD16A
:102470005878592829D10022985C204484B2521CF3
:10248000D2B2082AF8D3197AE0B288421DD19878DE
:10249000D97800EB012080B219795A7901EB022139
:1024A00089B2A1F2F5114EF66B0291420AD200EE0A
:1024B000100ADFED0D0A0D48B8EE400A20EE200AA2
:1024C00080ED000A00206870287039463046BDE86B
:1024D000F04100F00DB8BDE8F0810000004400407C
:1024E000780000204C0800200AD7233C0C00002074
:1024F00040F66A120A0A01219140C94301807047DF
:10250000002904D0818941F400518181704781897B
:1025100021F400518181704770B5002440F66A12A1
:10252000C1F3421301F01F05012606FA05F2012B43
:102530000CD0022B0DD0838A1340090A8E400088EC
:1025400030400BB100B10124204670BD8389134097
:10255000F3E7038A1340F0E710B540F66A13C1F3BE
:10256000421301F01F040121A140012B07D0022BCF
:1025700007D014303AB102680A43026010BD0C3033
:10258000F8E71030F6E702688A43026010BD0000E9
:102590007FB504460D46208A20F44051E888084360
:1025A0002082A08941F20C618843A9882A891143BD
:1025B0006A8902431143A181A08A20F44071A8894D
:1025C0000843A0826846FFF76FFA1E48844202D093
:1025D0001D48844201D1039800E00298A1890904B2
:1025E00008D500EBC00101EB001029684900B0FBE1
:1025F000F1F007E000EBC00101EB00102968890051
:10260000B0FBF1F06422B0FBF2F109010B096FF0AD
:1026100018056B4300EB8300A3891D044FF03203C0
:1026200007D503EBC000B0FBF2F000F00700084351
:1026300006E003EB0010B0FBF2F000F00F000843DF
:1026400020817FBD00100140001401408088C0F34C
:1026500008007047FEE700002DE9F04188B0804691
:1026600001210820FFF7E8F901214804FFF7F2F9FA
:102670002A4F072205213846FDF736FF072206219B
:102680003846FDF731FF2020069002258DF81C50BA
:102690008DF81D5000248DF81E4001268DF81F6016
:1026A00006A93846FDF7E2FE402006908DF81C5042
:1026B0008DF81D508DF81E408DF81F6006A9384614
:1026C000FDF7D4FECDF80880ADF80C40ADF80E4013
:1026D000ADF81040ADF814400C20ADF81200104CCD
:1026E00002A92046FFF754FF26218DF8041004218B
:1026F0008DF805108DF806508DF8076001A8FEF7DB
:102700007DFE01212046FFF7FBFE012240F225510C
:102710002046FFF721FF08B0BDE8F081000C024021
:1027200000440040F0B587B0054601210820FFF7BE
:1027300083F901210805FFF78DF9254F08220221B1
:102740003846FDF7D1FE0420059002208DF81800D0
:102750008DF8190000268DF81A6001248DF81B40B1
:1027600005A93846FDF782FE01952003ADF8080063
:102770004000ADF80A00C010ADF80C00ADF81060D4
:102780000C20ADF80E00134D01A92846FFF700FFFD
:1027900035218DF8001003218DF801108DF80240CD
:1027A0008DF803406846FEF729FE01212846FFF711
:1027B000A7FE012240F225512846FFF7CDFE012257
:1027C00040F224412846FFF7C7FE07B0F0BD0000E5
:1027D000000C02400050004003B4019841000098F2
:1027E00050EAC12018BF04204A0D18BF40F0010074
:1027F00040F2FF72B2EB515F08BF40F002000128C7
:1028000008BF052002B070474100080218BF04202D
:102810000A0E18BF40F001004FF07F4232EA01017A
:1028200008BF40F00200012808BF052070470000E3
:1028300070B5C1482DED020B2DED0E8B82B0119DB0
:1028400025F000449FEDBEDB9FEDBFEB84423EDBF5
:10285000A4F140511098A1F17F6108430FD0BC480A
:10286000844202DC28D1109830B39DED100B02B0E9
:10287000BDEC0E8B02B0BDE8704000F00DBE9DEDCA
:10288000100B53EC1D2B51EC100B01F07BFB9DED5D
:10289000100B41EC180B53EC1E2B51EC100B01F0FC
:1028A00071FB53EC182B01F06DF941EC100B02B0E9
:1028B000BDEC0E8B02B070BD0120FDF7FFFC02B035
:1028C000BDEC0E8B02B0BDE8704000F0F9BDA14830
:1028D0009FEDA18B844256DA9DED100BB4F1795F28
:1028E0000ADA51EC100BFFF777FF042808BF00F05D
:1028F000F7FD9DED100BDAE753EC102B51EC100BAC
:1029000001F040FB41EC190B95480621B0EE490A55
:10291000F0EE690A784400F043FD53EC192B51ECBA
:10292000100B01F02FFB41EC1A0B8E48B0EE490A58
:10293000F0EE690A0421784400F032FD53EC192BC3
:1029400051EC100B01F01EFB53EC182B01F01AF99F
:1029500041EC100B51EC1A0B53EC102B01F0BAF9AF
:10296000CDE900019DED000B53EC102B9DED100BFC
:1029700051EC100B01F006FB9DED101B53EC112BDD
:1029800001F000F9D2E09DED100B51EC100B00F0BE
:10299000E3FE53EC182B01F0F3FB9FED730BCDE935
:1029A000000153EC102B9DED000B51EC100B01F0CE
:1029B000E9FA41EC190B6E480621B0EE490AF0EE37
:1029C000690A784400F0ECFC53EC192B51EC100B25
:1029D00001F0D8FA41EC1B0B6648B0EE490AF0EE64
:1029E000690A0421784400F0DBFC53EC192B51EC0C
:1029F000100B01F0C7FA53EC182B01F0C3F841ECAF
:102A00001C0B51EC190B00F0F1FF41EC180B5A486C
:102A10009FED5BABA04222DC53EC1C2B51EC1B0B5B
:102A200001F058F9CDE900019DED000B51EC180BB8
:102A300053EC102B01F0A6FA53EC182B01F0A2F87E
:102A400053EC1A2B01F09EFA53EC1D2B01F070FC95
:102A500053EC1E2B01F094FB41EC100B5FE08DED6D
:102A6000008B002000909DED000B51EC180B53ECF7
:102A7000102B01F087F89DED000B41EC1E0B53EC81
:102A8000102B51EC100B01F07DFA53EC192B01F0D7
:102A900077FB53EC1E2B01F01DF941EC190B53ECA5
:102AA0001C2B51EC1B0B01F015F941EC1B0B53ECEB
:102AB0001A2B51EC190B01F065FA53EC1D2B01F0A8
:102AC0005FFB41EC190B53EC1A2B51EC180B01F086
:102AD00059FA53EC1B2B01F055FA53EC192B01F06A
:102AE00027FC9DED000B41EC180B53EC1A2B51EC1D
:102AF000100B01F047FA9FED249B53EC192B01F0CA
:102B00003FFB41EC100B51EC180B53EC102B01F078
:102B10000FFC53EC192B01F033FB41EC100B002D93
:102B20003FF7C5AE51EC100B00F0EEFF41EC100B7F
:102B3000BDE60000000000000000F03F00000000C3
:102B4000075C143326A6913C182D4454FB21F93F11
:102B50000000F07F0000E03F000000000000F03FB8
:102B6000D8220000E6220000000000000000E03F44
:102B70002A220000382200003333EF3F000000001B
:102B80000000000000000040182D4454FB21E93FE4
:102B900070B59B482DED020B2DED068B079D25F0A2
:102BA0000044A04218DC9748844202DC0AD106980F
:102BB00040B19DED060BBDEC068B02B0BDE8704048
:102BC00000F06ABC002DCCBF9FED8F0B9FED900BEA
:102BD000BDEC068B02B070BD8F48A04215DD8F485A
:102BE000A042D8BF4FF0FF3458DD9DED060B51ECED
:102BF000100BFFF7F1FD042808BF00F071FC9DEDFC
:102C0000060BBDEC068B02B070BD9DED060B51ECC2
:102C1000100B00F0A1FDCDE9060181489FED828BEC
:102C2000A0423CDD8248A0421FDD00249FED82AB24
:102C30009DED060B53EC1A2B51EC100B00F0A2FF8C
:102C40009DED060B41EC190B53EC1A2B51EC100BBC
:102C500001F098F953EC182B01F06AFB53EC192B97
:102C600001F038F8CDE9060149E09DED060B01249D
:102C700053EC182B51EC100B00F084FF9DED060B6C
:102C800041EC190B53EC182B51EC100B01F050FBDD
:102C900053EC192B01F01EF8CDE906012FE068482E
:102CA000A0421FDD02249FED689B9DED060B53ECB7
:102CB000192B51EC100B01F065F953EC182B00F0B7
:102CC00061FF9DED060B41EC180B53EC192B51ECF9
:102CD000100B01F02DFB53EC182B00F0FBFFCDE99E
:102CE00006010CE09DED060B032453EC102B9FED29
:102CF000580B51EC100B00F0EDFFCDE906019DEDF6
:102D0000060B53EC102B51EC100B01F03BF941EC8E
:102D1000180B53EC182B01F035F941EC190B4E4808
:102D20000621B0EE490AF0EE690A784400F038FB5B
:102D300053EC182B51EC100B01F024F941EC180B5B
:102D40004648B0EE490AF0EE690A0521784400F0E1
:102D500027FB53EC192B51EC100B01F013F941EC4C
:102D6000100B51EC180B53EC102B002C0EDA00F06A
:102D700009FF9DED061B53EC112B01F003F99DEDAE
:102D8000061B53EC112B01F0FBF935E000F0FAFEC5
:102D90009DED061B53EC112B01F0F4F841EC100BE8
:102DA0002F48784400EBC40090ED001B51EC100B51
:102DB00053EC112B01F0BCFA9DED061B53EC112BCB
:102DC00001F0B6FA41EC100B2648784400EBC40041
:102DD00090ED001B51EC100B53EC112B01F0D0F9CE
:102DE00041EC100B002DA2BFBDEC068B02B070BDF4
:102DF00051EC100B00F088FE41EC100B01E70000D5
:102E0000000010440000F07F182D4454FB21F93FCE
:102E1000182D4454FB21F9BF0000DC3F0000203E88
:102E20000000F33F00000000000000000000F03F41
:102E30000000E63F0000000000000000000000402D
:102E40000080034000000000000000000000F83F88
:102E5000000000000000F0BF7A1F0000301F0000DB
:102E6000BA1E0000721E000070B56B4E2DED040BF3
:102E70002DED028B82B0DDF81CC0DDE905235C423C
:102E80002CF000411C4341EAD474049D22F0004020
:102E9000B44205D86C422C4340EAD474B4420BD9F6
:102EA0009DED061B9DED040B02B0BDEC028B04B042
:102EB000BDE8704000F0FABAACF14054A4F17F6470
:102EC0001C430BD0022404EAAC7444EAD2740543D8
:102ED0009FED538B9FED542B07D015E09DED040B18
:102EE00051EC100B00F0CBFB42E0002C11BF012C89
:102EF0009DED040B02B0BDEC028B04BF04B070BDAD
:102F0000022C38D0032C3BD00B439FED491B9FED87
:102F10004A0B0AD0B14218D1B04209D121F0804108
:102F200020F08040079105900FE0002A15DA10E0AC
:102F3000434B7B44002C08BF93ED000B0DD0012CBC
:102F400010D0022C17D0032C1AD0B0421DD1002A69
:102F500003DAB0EE410AF0EE610A02B0BDEC028B7A
:102F600004B070BD93ED000B51EC100B00F0CCFDE4
:102F700041EC100BF1E7B0EE480AF0EE680AECE71E
:102F8000B0EE420AF0EE620AE7E7401A00153C286C
:102F9000C8BF8DED000B19DCBCF1000FBEBF10F1F6
:102FA0003C0F9FED290B8DED000B0FDB9DED060B0C
:102FB00053EC102B9DED040B51EC100B00F08AFE2E
:102FC00000F0CAFB00F05BFBCDE90001002C08BF5C
:102FD0009DED000BC1D0012C10D0022C9FED1C0BDD
:102FE00053EC102B9DED000B51EC100B0DD001F0AC
:102FF0009FF953EC182B01F09BF9B9E7019880F089
:10300000004001909DED000BA7E701F091F953EC12
:10301000182B01F0B5F8ABE70000F07F00000000CE
:10302000182D4454FB210940182D4454FB2109C09C
:10303000182D4454FB21F9BF182D4454FB21F93FAE
:10304000A21D0000000000000000000000000000C1
:10305000075C143326A6A13C10EE101A08B5444AAA
:103060006846B2EB410F28D94FF0E640B0EB410F74
:1030700094BF00204FF0FF3000900098002861DBE3
:1030800060EE000A10F0010F45D010F0020FDFEDE6
:10309000391A9FED391A00EEE11ADFED381A40EEC9
:1030A000811A21EEA01AF0EE400A40EE010A08BF94
:1030B000F1EE600AB0EE600A08BD314B21F000422B
:1030C00093423CD911F0004FDFED2E0A20EE201A7A
:1030D000DFED2D0A19BF31EE601A71EE200A31EED4
:1030E000201A71EE600ABDEEE01A11EE100A9FED93
:1030F000271A00F0030000EEC10A9FED251A009088
:1031000000EEC10A9FED231A00EEC10A9FED221ABC
:1031100000EEC10AB1E79FED211A9FED210A10F0E0
:10312000020F00EE810A9FED1F1A00EE801AB7EE23
:10313000000A00EE810A18BFB1EE400A08BD00F097
:10314000F3F99AE710EE100A4000B0F17F4F3CBF50
:10315000B7EE000A08BD07D14FF00100FDF7AEF849
:10316000BDE8084000F0D0B9BDE8084000F0C8B99B
:10317000B61F927E336D4C39DA82083CA0AA2ABE73
:10318000490E494683F9223F0000004B0000C93F29
:1031900000A0FD390020A2331A61342CB93AB2BA2A
:1031A000CA9F2A3DDDFFFFBE00B52DED048BB0EEBA
:1031B000409AF0EE609A83B051EC190B00F0ECFFEE
:1031C00041EC180B18EE100A18EE901A8DED008BDA
:1031D000002818BF0120084320F00040C0F17F60A4
:1031E00000F1E040C00F14D019EE101A19EE900A49
:1031F0008DED009B002918BF0121084320F00040FD
:10320000C0F17F6000F1E040C00F04BF0120FDF776
:1032100055F8B0EE480A03B0F0EE680ABDEC048B36
:1032200000BD000000B510EE101A2DED028B81B02C
:103230004D4A6846B2EB410F3CD94FF0E640B0EB47
:10324000410F94BF00204FF0FF3000900098B0EE87
:10325000408A00285FDB28EE080ADFED440A9FED74
:10326000441A00EE201ADFED430A40EE010A9FEDFA
:10327000421A00EE201ADFED410A10F0010F40EE75
:10328000010A9FED3F1A00EE201A61EE000AB0EE2F
:10329000480A08EE200A02BF01B0BDEC028B00BD57
:1032A000BFEE001A01B0C1EE000ABDEC028BB0EE19
:1032B000600A00BD334B21F00042934228D911F03F
:1032C000004FDFED310A20EE201ADFED300A19BF82
:1032D00031EE601A71EE200A31EE201A71EE600AAA
:1032E000BDEEE01A11EE100A9FED291A00F003005E
:1032F00000EEC10A9FED271A009000EEC10A9FED73
:10330000261A00EEC10A9FED251A00EEC10A9DE7BC
:1033100000F00AF99AE718EE100A4000B0F17F4F6A
:103320000DD218EE100AFFF76FFA042808BF00F05C
:10333000F3F8B0EE480A01B0BDEC028B00BD09D134
:103340000120FCF7BBFF01B0BDEC028B5DF804EB84
:1033500000F0DAB801B0B0EE480ABDEC028B5DF8BF
:1033600004EB00F0CDB80000B61F927EBBE9223C12
:103370000C6D063B8A76CE3CACB5593D35A1083E76
:1033800029AAAA3E490E494683F9223F0000004B74
:103390000000C93F00A0FD390020A2331A61342C7F
:1033A00070B504462DED028B4D1E00EBC500B0EE4E
:1033B000408AF0EE608A90ED000B35F0060017D0E1
:1033C00053EC182B51EC100B00F0DCFD41EC100B12
:1033D0006D1E04EBC50090ED001B51EC100B53EC7F
:1033E000112B00F0CFFB41EC100B35F00600E7D1BC
:1033F000022D36D0042D1CD0062D1CBFBDEC028B37
:1034000070BD53EC182B51EC100B00F0BBFD94ED8C
:103410000A1B53EC112B00F0B5FB53EC182B00F0FA
:10342000B1FD94ED081B53EC112B00F0ABFB41EC0C
:10343000100B53EC182B51EC100B00F0A3FD94ED86
:10344000061B53EC112B00F09DFB53EC182B00F0E6
:1034500099FD94ED040B53EC102B00F093FB41EC21
:10346000100B53EC182B51EC100B00F08BFD94ED6E
:10347000021B53EC112B00F085FB53EC182B00F0D2
:1034800081FD94ED001B53EC112B00F07BFBBDEC98
:10349000028B41EC100B70BD10B553EC102B51ECAE
:1034A000100B00F06FFB41EC100B10BD10B553EC8E
:1034B000112B51EC100B00F065FB41EC100B10BD13
:1034C0009FED050B10B553EC102B51EC100B00F0D9
:1034D00001FC41EC100B10BD0000000000000000DA
:1034E0009FED050B10B553EC102B51EC100B00F0B9
:1034F00049FD41EC100B10BD000000000000001061
:1035000030EE000A70470000DFED020A80EEA00AEC
:1035100070470000000000009FED020A20EE000A44
:1035200070470000000000102DE9F0014FF07F42CD
:10353000B2EB410F9FBF4FF0FF310160BDE8F001DA
:1035400070474FF0004242EA0123C1F3C752783A74
:10355000551112F01F0C434CCCF120067C44C1F3F2
:10356000C752A2F178024FEA621204EB820254F8C9
:10357000254008BFD2E9015612D0556804FA0CF470
:1035800025FA06F73C43976805FA0CF527FA06F882
:10359000D26807FA0CFCF24045EA08054CEA02063C
:1035A000A4FB034CA5FB0352A6FB03631D449D42F1
:1035B00034BF012600261319334416B1934202D9B1
:1035C00003E0934201D2012200E00022624402F1B2
:1035D000200C9206DC0C42EA443200EE102A5B0317
:1035E000DFED210AF8EEC01A00EE103A4FEA9C1CFB
:1035F00011F0004FB8EE400AC0F800C020EE201ACB
:1036000000EE105ADFED190AB8EE400A20EE200A4B
:1036100071EE810A70EE800A10EE902A02F50062C7
:103620006FF30B0200EE902A70EEE11A31EEC11A30
:10363000DFED101A30EE411A9FED0D0A20EE800AE0
:1036400001EE210A9FED0C1A00EE810A04BFBDE8CD
:10365000F0017047CCF180510160BDE8F001B1EE9E
:10366000400A704780170000000000360000802CE0
:1036700022AAFD29DB0FC92F0000C92F704710B502
:1036800041EC100BFFF784FA51EC100B10BD000059
:1036900010B504466FF00400FEF708FC0649E00888
:1036A000087000EB4002C2EBC0104FF6FF7202EA56
:1036B000C000488010BD00002600002070B54FF407
:1036C0000775B0FBF5F1CCB2B0FBF5F105FB1106C7
:1036D00004E0284600F026F8641EE4B2002CF8D17D
:1036E000002E04D03046BDE8704000F01BB870BD1D
:1036F0000B49097848434FF0E021486100238B6172
:10370000086940F0010008610869C20701D0C003E0
:10371000FAD5086920F0010008618B61704700004C
:10372000260000200B49498848434FF0E0214861BA
:1037300000238B61086940F0010008610869C20735
:1037400001D0C003FAD5086920F0010008618B613F
:10375000704700002600002082B0CDE9000121F072
:10376000004001909DED000B02B051EC100B704732
:10377000F6EE000A60EE200A10EE100A0649A1EBF0
:10378000600000EE100A20EE801AF7EE080A41EE03
:10379000400A20EE800A7047DF59375F4FF4A0607F
:1037A000FDF760FEA820FFF773FF4FF4E1342046D9
:1037B00000F054F9FCF704FEFEF780F8FEF72EFC4B
:1037C000FCF7A6FEFDF7FAFFFEF7BEF91E20FFF795
:1037D00075FFFCF709FF2046FEF73EFF1E20FFF7AE
:1037E0006DFFFDF767FEFDF747FE5C48FEF79AFFA9
:1037F0005B4BA3F19802A2F19801A1F19800FDF7AB
:1038000077F9584F4FF4007A51463846FCF77CFE62
:10381000FCF718FE5248002698304672DFF84881BF
:10382000524C4FF48079A0F52175002211461046C4
:10383000FDF70AFF012200211220FDF705FF0222F9
:1038400000212420FDF700FF032200213620FDF790
:10385000FBFE042200214820FDF7F6FE0522002190
:103860005A20FDF7F1FE42A203210020FDF74CFF94
:10387000A07801285BD1A670FEF72AFA404801889B
:1038800000EE101AB8EE400A85ED020A418800EEFB
:10389000101AB8EE400A85ED030AC18800EE101A2E
:1038A000B8EE400A85ED000A818800EE101AB8EEE5
:1038B000400A85ED010A418900EE101AB8EE400A6F
:1038C00085ED070A818900EE101AB8EE400A85EDF1
:1038D000080A008900EE100AB8EE400A85ED060AD3
:1038E00010EE100AB0F1894F29D010EE100A2549C8
:1038F000884210D151463846FCF708FE4946384602
:10390000FCF704FE04214046FCF700FE0821404677
:10391000FCF7FCFD267095ED030A4FF08041BCEEEC
:10392000C00A10EE100AC86310EE100A086460782E
:1039300001287FF47AAF6670FCF778FE75E7012006
:10394000207049463846FCF7DFFD04214046FCF76D
:10395000DBFD08214046FCF7D7FDDCE7A08601002F
:103960000C04002000040240000802400000002077
:10397000312E3327204F4C454420544553540000EA
:103980002E0900200080B04310B510EE100A20F080
:103990000040C0F1FF40C00F002802D09FED100A88
:1039A00010BD10EE100AB0F17E5F02DB9FED0D0A34
:1039B00010BD10EE100A10F1814F02D39FED0A0ADC
:1039C00010BD10EE100A00F09DFD41EC100BFEF74B
:1039D0002FFF51EC100B00F0A3F800EE100A10BD01
:1039E00000000000DB0FC93FDB0FC9BF00B52DEDA4
:1039F000048B83B041EC190B00F0CEFB41EC180BAB
:103A000018EE100A18EE901A8DED008B002818BFE2
:103A10000120084320F00040C0F17F6000F1E04049
:103A2000C00F14D019EE101A19EE900A8DED009BFC
:103A3000002918BF0121084320F00040C0F17F6039
:103A400000F1E040C00F04BF0120FCF737FC51EC4F
:103A5000180B03B0BDEC048B00BD0000F0B587B0BF
:103A6000054601210846FDF7E7FF01211020FDF77B
:103A7000FFFF234F072209213846FCF735FD0722B7
:103A80000A213846FCF730FD4FF4C0600590022053
:103A90008DF818008DF8190000248DF81A400126C1
:103AA0008DF81B6005A93846FCF7E0FC0195ADF8E0
:103AB0000840ADF80A40ADF80C40ADF810400C20BD
:103AC000ADF80E000F4C01A92046FEF761FD012163
:103AD0002046FEF715FD012240F225512046FEF753
:103AE0003BFD25208DF8000003208DF801008DF8A6
:103AF00002008DF803606846FDF780FC07B0F0BD5A
:103B0000000002400010014081F00041704780F049
:103B10000040704721F00041704720F0004070479E
:103B200021F00042A2F16052B2F5801F01F0004383
:103B300028BFD2F17F6C0BD95FEA001C43EAC202B6
:103B400042EB507018BF704728BF20F0010070474B
:103B5000B2F5801FBCBF184670474FEA410C1CF5F8
:103B6000001F02D2084600F043BD70B500F0B4FA61
:103B700000000089FFF7F6BF4FF00040A0F580007D
:103B80007047000010B591EA030F48BF83F000436F
:103B900000F1D683841A71EB030C05D2121943EBA2
:103BA0000C03001B61EB0C01DFF824E14FEA115418
:103BB000A4EB135C1EEA430F18BF9EEA445F73D068
:103BC00023EA0E03DCF1200E21EA045143F48013B2
:103BD00032D322FA0CFE10EB0E0023FA0CFE41EB5E
:103BE0000E01CCF1200E03FA0EFE10EB0E0051F187
:103BF0000001B1F5801FCCF1200E32D201EB04514F
:103C000012FA0EF2BDE8104058BF7047401C38BF92
:103C10005FEA420218BF7047002814BF20F001007D
:103C200041F100014FEA410313F5001F38BF70470F
:103C3000A1F1C04100F09EBA012A43EB0302ACF1AE
:103C4000200CDCF11F0E32BF4FF0000E23FA0CF3F4
:103C500010EB030041EB0451B4EB115FD0D0A1EBAA
:103C6000045101F5801149085FEA300001EB04516D
:103C70000ED350F1000038BF12FA0EFE08D1BDE895
:103C80001040C9E7401C38BF5FEA4202CAD1C3E70F
:103C9000BDE810404FEA410313F5001F38BF7047DD
:103CA000A1F1C04100F066BA9EEA445F08D011EA73
:103CB0005E0FBDE8104004BF01F0004100207047D6
:103CC000BDE8104070B500F007FA00BF64FBBE3ECF
:103CD0000000E0FF2DE9C04130B4DFF8A0C23CEAAB
:103CE000111418BF3CEA131400F0EC8081EA0305BC
:103CF0001CEA111444EAD57418BF1CEA131500F02D
:103D0000C780A4EB05044FF0004545EAC12145EA10
:103D1000C32341EA505143EA525304F17F7499425C
:103D200004F500344FEAC0204FEAC22208BF904297
:103D300000F09C804FEA13650FF24016765D4FEA63
:103D4000134506FB05F7C7F1807706FB07F74FEA37
:103D5000D737A7FB03687642C8F58038A7FB06CEA5
:103D600038BFA8F1010807FB08E64FF0000EA6FBDC
:103D7000028CE6FB03CEDCF1000CCEF1004E38BF26
:103D8000AEF1010EA6FB0C584FF000074FF00005F6
:103D9000E6FB0E87A1FB08C6A0FB07CE16EB0E06BE
:103DA00045F10005E1FB076515F1E04E7EBFA4F586
:103DB00080345FEA46066D4116F1800745F1000543
:103DC0004FEA17274FEA066647EA0567A6F1DE467F
:103DD000B6F1805F4FEA15251FD9384624F0010C53
:103DE00005EBC471BCF1FE6F01EB0C1102D8F0BC05
:103DF000BDE8008124425CBF01F5801E9EEAC47FBD
:103E000002D4F0BCBDE80081244238D4F0BCA1F15A
:103E1000C041BDE8004100F0ADB94FEAD22242EA0C
:103E200043524FEAD323A7FB02864FEAD02040EA51
:103E3000415007FB03661EEA0E0F4FEAD12105FB36
:103E4000026658BFA6EB0056B6EB00564FEA520E7C
:103E50004EEAC37E18EB0E0E56EB530EBDD518EB93
:103E600002085E417F1C55F10005B6E74FF480154E
:103E70004FF000074FF000064FF00008ADE7F0BC30
:103E80004FF0000001F1C04101F00041BDE80081A8
:103E900011EA0C1F0CEA131500D00CE013EA0C1FFA
:103EA00000F025804FF00000F0BC81EA030101F032
:103EB0000041BDE80081F0BCBDE8004181EA03019A
:103EC00000F058B9F0BCBDE8004170B500F004F94D
:103ED000097EFC3E00F007B881EA03014FF00000C4
:103EE00001F00041704781EA030100F043B9F0BCE2
:103EF000BDE800414FF0000021497047FFFDFBF98C
:103F0000F7F5F4F2F0EEEDEBE9E8E6E4E3E1E0DE0C
:103F1000DDDBDAD8D7D5D4D3D1D0CFCDCCCBCAC87E
:103F2000C7C6C5C4C2C1C0BFBEBDBCBBBAB9B8B7A5
:103F3000B6B5B4B3B2B1B0AFAEADACABAAA9A8A898
:103F4000A7A6A5A4A3A3A2A1A09F9F9E9D9C9C9B66
:103F50009A99999897979695959493939291919011
:103F60008F8F8E8E8D8C8C8B8B8A898988888787A2
:103F70008685858484838382828181800000FF0717
:103F80000000F87FDFF848C170B51CEA111E1EBFA3
:103F90001CEA13159EEA0C0F95EA0C0F00F06F80D7
:103FA00081EA030423EA4C134EEAD47E21EA4C1141
:103FB00041F4801143F48013AE44A1FB024CA0FBFA
:103FC0000365AEF17F7E361955EB0C05A1FB034C62
:103FD0004CF10003A0FB021C16EB0C06654153F1EB
:103FE0000003094218BF46F0010613F4007F0BD10D
:103FF0004FEA03314FEA0530340341EA155140EAF4
:1040000016506FF003020AE04FEAC3214FEAC520C1
:10401000F40241EA555140EA56506FF0020202EBB9
:104020002E4201EB025585EACE710AD05FEA440CBC
:1040300018BF24F0004450F1000041F1000120EAD3
:10404000D47040F2FE7C624500D270BDA84214BF1D
:104050004FF080444FF04044002E08BF0024BEF1D2
:10406000806FA8BFA1F1C041BDE8704080F282809E
:104070004FF0000001F1C04101F0004170479EEA9D
:104080000C0F0CEA131518BF95EA0C0F06D04FF071
:10409000000081EA030E0EF0004170BD00F01CF834
:1040A0008900013E00F007B800F009B84FEA430C60
:1040B0005FEA5C5C08D081EA030100F05BB84FEA7C
:1040C000410C5FEA5C5CF6D14FF00000014970479B
:1040D0000000FF070000F87F0EF1020E2EF0030E25
:1040E0005EF8046B364205D4012A43EB030515F54F
:1040F000001F12D8012841EB010C1CF5001F0CD841
:104100000ED14FEAD17C15F5001F0CEB4C0C0CF1D5
:10411000020C08BF4CEBD37C04E04FF0080C01E02C
:104120004FEAD37C0CEB4C0526FA05F606F00706A1
:10413000B6F1040C06D20EEB860CBDE870404CF0D4
:10414000010C6047DFE80CF0090B02024FF0004160
:104150004FF00000A1F5002170BD1946104601285E
:1041600051EB010418BFD4F5001484BF002001F006
:10417000004170BD0808A0F500114FEA31017047F9
:1041800091EA030F10B581F000413FF503AD83F0D4
:10419000004300F0D5B800002DE9F04101F5801C86
:1041A000BCF5001FC0F2A9804FEA115C21EA0C5156
:1041B0000CF1FD0C41F480115FEA5C0C0CF5C07C45
:1041C00001D34000494130A4890241EA905187025D
:1041D0008E0E0A0CA45D04FB04F602FB06F6C6F183
:1041E0004046A4FB0662F60D46EA422606FB06F4AC
:1041F000A4FB01235242C3F1404338BF5B1EA6FB20
:1042000002420024E6FB0324D20B42EA4446A6FB0A
:104210000623A1FB02E2A3FB07E4E3FB6142644245
:10422000C2F1404E38BFAEF1010EA6FB04234FF0A1
:104230000002E6FB0E32A2FB03463400E2FB62649E
:10424000A1FB06E6A4FB07E8E4FB61687642C8F13F
:10425000405838BFA8F10108A2FB06E4A3FB08E51B
:10426000E2FB6854A1FB05E6A7FB04E8E1FB6486DA
:1042700018F1200556F10006A809A8F11B08B1099C
:1042800008F03F08B8F10A0F40EA86601CD901EB3C
:104290000C51BDE8F08100BFFCF5EEE8E2DDD8D3BB
:1042A000CFCBC7C3C0BDB9B6B4B1AEACA9A7A5A3A7
:1042B000A19F9D9B9A9896959392908F8D8C8B89B8
:1042C0008887868584838281A0FB006800FB01F2D9
:1042D00008EB4208B8EB872807D5341858EB0104DF
:1042E000D5D5401C51F10001D1E7341A78EB010417
:1042F000CDD4401E71F10001C9E75FEA4C0C5FEAC2
:104300009C5C0DD105D34FF0000001F00041BDE8E9
:10431000F081BDE8F04170B5FFF7DEFE6DDBFFBE5A
:10432000BDE8F0414FF00000004970470000F87F01
:1043300010B591EA030F48BF83F000433FF52AAC64
:10434000841A71EB030C07D212198CF0004C43EB6A
:104350000C03001B61EB0C01DFF8A4E14FEA1154E0
:10436000A4EB135C1EEA430F18BF9EEA445F00F003
:10437000B08023EA6E03524221EA0451C3EB6E037C
:1043800038BF5B1EDCF1200E25D322FA0CFE10EBA9
:104390000E0043FA0CFE41EB0E01CCF1200E03FAA5
:1043A0000EFE10EB0E0051F10001CCF1200E29D4CD
:1043B00012FA0EF201EB0451BDE8104058BF7047ED
:1043C000401C1CBFB2F1004F704700280CBF491CB5
:1043D00020F00100704712EB020E43EB030218BFFE
:1043E0004FF0010E4EEA4202ACF1200CDCF11E0E41
:1043F00054D943FA0CFE10EB0E0051F1FF31CCF111
:104400001E0ED5D50EF1010E12FA0EFE404141EB03
:10441000010101EB445C5FEA5C5C10D910EBDE70DB
:1044200001EB045138BFBEF1004FBDE8104018BF8A
:10443000704700280CBF491C20F00100704730D2A3
:104440004FEAD42C11F5001124F400641BD0B1FA0A
:1044500081F20B3AA41AA41ED2F12003914030FA43
:1044600003F31943904001EBCC71002C01EB045194
:10447000BDE81040A8BF704701F1C0414FF00000F7
:1044800001F000417047B0FA80F310FA03F100D157
:1044900010BDE41A173C4805C90AE4E701EB0451D2
:1044A00010BD491001EB0451BDE810404FEA300047
:1044B00002E04FF0000170474A0008BF0042F8D008
:1044C000B2F5001F28BF704701F000414FF0000017
:1044D00070479EEA445F07D011EA5E0FBDE81040C6
:1044E00004BF002100207047BDE8104070B5FFF701
:1044F000F3FD00BF40DFF63E83F0004110467047F9
:104500000000E0FF43004FEAD30C4FEA3C0C43406D
:104510001FBF40070CF1605113F0FE4F70471CF0B5
:10452000006F03D100200CF0004170470CF00043F5
:1045300043EA507010B540EACC0000F00EF800BF1E
:10454000000000924FEA0001FFF714BE4FF0004157
:104550004FF00000A1F5002170470EF1020E2EF081
:10456000030E5EF8044B244204D44FEA4102B2F138
:104570007F4F11D84FEA4003B3F17F4F0CD80ED1D3
:104580004FEAD07CB2F17F4F0CEB4C0C0CF1020CDB
:1045900008BF4CEBD17C04E04FF0080C01E04FEA7F
:1045A000D17C0CEB4C0324FA03F404F00704B4F1BF
:1045B000040C06D20EEB840CBDE810404CF0010C4C
:1045C0006047DFE80CF0070802024FF00040A0F55A
:1045D000800010BD0846420018BFD2F1807288BF2B
:1045E00000F0004010BD4FF04070E1EE100A70473F
:1045F000FF2141EAD050C0057047000000000000D4
:1046000000000000000000000000000000F80000B2
:104610000000000000333000000000100C06100CF9
:104620000600000000000000000040C07840C07894
:104630004000043F04043F040400007088FC08307C
:104640000000001820FF211E0000F008F000E01814
:10465000000000211C031E211E0000F008887000CD
:1046600000001E2123241927211010160E0000001F
:1046700000000000000000000000000000E018043E
:104680000200000000071820400000020418E000AB
:1046900000000040201807000000404080F08040EB
:1046A00040000202010F01020200000000F00000C1
:1046B00000000101011F01010100000000000000D5
:1046C000000080B07000000000000000000000004A
:1046D00000000001010101010101000000000000D3
:1046E000000000303000000000000000000080608A
:1046F0001804006018060100000000E0100808100F
:10470000E000000F102020100F00001010F8000033
:1047100000000020203F20200000007008080888CA
:10472000700000302824222130000030088888489A
:1047300030000018202020110E000000C02010F8CA
:10474000000000070424243F240000F8088888089B
:1047500008000019212020110E0000E010888818A0
:104760000000000F112020110E0000380808C83882
:1047700008000000003F0000000000708808088862
:104780007000001C222121221C0000E010080810EB
:10479000E0000000312222110F00000000C0C00024
:1047A0000000000000303000000000000080000029
:1047B0000000000080600000000000008040201029
:1047C0000800000102040810200040404040404022
:1047D0004000040404040404040000081020408085
:1047E00000000020100804020100007048080808BA
:1047F000F0000000003036010000C030C828E8108A
:10480000E0000718272423140B000000C038E00044
:104810000000203C23020227382008F8888888708E
:104820000000203F202020110E00C030080808089A
:104830003800071820202010080008F80808081081
:10484000E000203F202020100F0008F88888E808AA
:104850001000203F20202320180008F88888E8084E
:104860001000203F200003000000C0300808083876
:10487000000007182020221E020008F80800000887
:10488000F808203F210101213F20000808F808080E
:1048900000000020203F2020000000000808F80849
:1048A0000800C08080807F00000008F888C02818B9
:1048B0000800203F20012638200008F808000000EA
:1048C0000000203F20202020300008F8F800F8F8F1
:1048D0000800203F003F003F200008F830C00008DB
:1048E000F808203F200007183F00E01008080810D3
:1048F000E0000F10202020100F0008F8080808081A
:10490000F000203F210101010000E010080808101C
:10491000E0000F18242438504F0008F88888888851
:104920007000203F2000030C302000708808080829
:1049300038000038202121221C00180808F8080837
:1049400018000000203F2000000008F808000008C0
:10495000F808001F202020201F000878880000C8C9
:104960003808000007380E010000F80800F80008B9
:10497000F800033C0700073C0300081868808068C3
:10498000180820302C03032C30200838C800C83801
:1049900008000000203F2000000010080808C83868
:1049A00008002038262120201800000000FE020206
:1049B00002000000007F40404000000C30C00000BA
:1049C0000000000000010638C00000020202FE00E4
:1049D0000000004040407F0000000000040202028E
:1049E00004000000000000000000000000000000C3
:1049F00000008080808080808080000202040000AF
:104A000000000000000000000000000080808080A6
:104A100000000019242222223F2008F80080800094
:104A20000000003F112020110E0000000080808057
:104A30000000000E1120202011000000008080885E
:104A4000F800000E112020103F20000080808080A0
:104A50000000001F222222221300008080F088889C
:104A600088180020203F20200000000080808080E7
:104A70008000006B94949493600008F8008080801C
:104A80000000203F210000203F2000809898000077
:104A900000000020203F20200000000000809898A7
:104AA000000000C08080807F000008F80000808047
:104AB0008000203F24022D302000000808F800006C
:104AC00000000020203F2020000080808080808027
:104AD0008000203F20003F20003F808000808080B9
:104AE0000000203F210000203F20000080808080C7
:104AF0000000001F202020201F00808000808000F8
:104B0000000080FFA12020110E00000000808080A6
:104B10008000000E112020A0FF8080808000808017
:104B2000800020203F212000010000008080808044
:104B300080000033242424241900008080E0808039
:104B400000000000001F2020000080800000008086
:104B50008000001F202020103F20808080000080E7
:104B6000808000010E3008060100808000800080F7
:104B700080800F300C030C300F000080800080809C
:104B800080000020312E0E312000808080000080C7
:104B9000808080818E701806010000808080808077
:104BA00080000021302C2221300000000000807C99
:104BB000020200000000003F404000000000FF0033
:104BC000000000000000FF0000000002027C8000E6
:104BD00000000040403F000000000006010102020A
:104BE00004040000000000000000000000000000BD
:104BF000555555555555C53F7D6FEB0312D6D4BF5E
:104C00005544880E55C1C93F3B8F68B52882A4BF63
:104C100088B20175E0EF493F09F7FD0DE13D023F24
:104C20004B2D8A1C273A03C0C88A599CE52A0040AC
:104C300059018D1B6C06E6BF82922EB1C5B8B33FF9
:104C40004FBB610567ACDD3F182D4454FB21E93FA4
:104C50009BF681D20B73EF3F182D4454FB21F93F93
:104C6000E2652F227F2B7A3C075C143326A6813C19
:104C7000BDCBF07A8807703C075C143326A6913CC4
:104C8000C4EB98999999C9BF711623FEC671BCBF30
:104C90006D9A74AFF2B0B3BF9AFDDE522DDEADBF98
:104CA0002F6C6A2C44B4A2BF0D5555555555D53FB0
:104CB000FF8300922449C23F6E204CC5CD45B73FCB
:104CC000513DD0A0660DB13FEB0D76244B7BA93F43
:104CD00011DA22E33AAD903F00000000000000002E
:104CE000000000006E83F9A22915444ED15727FC1D
:104CF000C0DD34F5999562DB4190433CAB6351FED6
:104D0000204D00080000002020020000C40100081F
:104D1000044E000820020020980D00002002000828
:104D200001192D01020304040555060708090012A4
:104D3000110120242424FEFF232220FFFF222EAC79
:104D4000A0200010130848CCFF7F434160331F1C94
:104D50003663F9F83C7F7F490103137F7F280B817D
:104D6000C1613D3D61C1FFFF8901031181811809C6
:104D70001098CCF733FEFE92010312FEFE160203DA
:104D800001FFFF1EFFFF60230F8003114140F81059
:104D900080E0F8FF171010FFFFF0F117161010E178
:104DA0001A013D080C1080E07C1F033F7F404078D3
:104DB0007880F80D9092D27232FEFE3371D19190CC
:104DC0003F11180F018181C0713F0F01014DCFCB01
:104DD00078394E0110180CF8FC0F0B08F8F870BF6A
:104DE0008F0807011220087F7F2121217F7F061273
:104DF00043C3C07F3F18093D0A573FCDCCCC3ECAC4
:044E000009111E6115
:040000050800018965
:00000001FF
